{
  "address": "0x582caCd9c9fb5bd5711b819F5430aC77F03BF53d",
  "abi": [
    {
      "inputs": [
        {
          "internalType": "address",
          "name": "_owner",
          "type": "address"
        }
      ],
      "stateMutability": "nonpayable",
      "type": "constructor"
    },
    {
      "inputs": [],
      "name": "greeting",
      "outputs": [
        {
          "internalType": "string",
          "name": "",
          "type": "string"
        }
      ],
      "stateMutability": "view",
      "type": "function"
    },
    {
      "inputs": [],
      "name": "owner",
      "outputs": [
        {
          "internalType": "address",
          "name": "",
          "type": "address"
        }
      ],
      "stateMutability": "view",
      "type": "function"
    },
    {
      "inputs": [
        {
          "internalType": "string",
          "name": "_newGreeting",
          "type": "string"
        }
      ],
      "name": "setGreeting",
      "outputs": [],
      "stateMutability": "payable",
      "type": "function"
    },
    {
      "inputs": [],
      "name": "totalCounter",
      "outputs": [
        {
          "internalType": "uint256",
          "name": "",
          "type": "uint256"
        }
      ],
      "stateMutability": "view",
      "type": "function"
    },
    {
      "inputs": [
        {
          "internalType": "address payable",
          "name": "_recipient",
          "type": "address"
        }
      ],
      "name": "transferEther",
      "outputs": [],
      "stateMutability": "payable",
      "type": "function"
    },
    {
      "inputs": [
        {
          "internalType": "address",
          "name": "",
          "type": "address"
        }
      ],
      "name": "userGreetingCounter",
      "outputs": [
        {
          "internalType": "uint256",
          "name": "",
          "type": "uint256"
        }
      ],
      "stateMutability": "view",
      "type": "function"
    },
    {
      "inputs": [],
      "name": "withdraw",
      "outputs": [],
      "stateMutability": "nonpayable",
      "type": "function"
    },
    {
      "stateMutability": "payable",
      "type": "receive"
    }
  ],
  "transactionHash": "0x72da46d04a92f50ab742084bf3a0e6362a3c460e3dd24e99b9fc6061a6447baf",
  "args": [
    "0x8DabF51501196a7700c97616bD82791cF31Ac685"
  ],
  "numDeployments": 1,
  "solcInputHash": "ed26215b84fdf6872cbe1c1fa1a5f27d",
  "bytecode": "0x610100604052602660a08181529061091a60c0396000906100209082610101565b50600060015534801561003257600080fd5b50604051610940380380610940833981016040819052610051916101c0565b6001600160a01b03166080526101f0565b634e487b7160e01b600052604160045260246000fd5b600181811c9082168061008c57607f821691505b6020821081036100ac57634e487b7160e01b600052602260045260246000fd5b50919050565b601f8211156100fc57600081815260208120601f850160051c810160208610156100d95750805b601f850160051c820191505b818110156100f8578281556001016100e5565b5050505b505050565b81516001600160401b0381111561011a5761011a610062565b61012e816101288454610078565b846100b2565b602080601f831160018114610163576000841561014b5750858301515b600019600386901b1c1916600185901b1785556100f8565b600085815260208120601f198616915b8281101561019257888601518255948401946001909101908401610173565b50858210156101b05787850151600019600388901b60f8161c191681555b5050505050600190811b01905550565b6000602082840312156101d257600080fd5b81516001600160a01b03811681146101e957600080fd5b9392505050565b6080516107026102186000396000818160bc0152818161018c01526101f201526107026000f3fe6080604052600436106100745760003560e01c806397feba9d1161004e57806397feba9d146100fb578063a41368621461011f578063cea49c3c14610132578063ef690cc01461015f57600080fd5b80633ccfd60b146100805780636b55e991146100975780638da5cb5b146100aa57600080fd5b3661007b57005b600080fd5b34801561008c57600080fd5b50610095610181565b005b6100956100a5366004610423565b6102ab565b3480156100b657600080fd5b506100de7f000000000000000000000000000000000000000000000000000000000000000081565b6040516001600160a01b0390911681526020015b60405180910390f35b34801561010757600080fd5b5061011160015481565b6040519081526020016100f2565b61009561012d36600461045d565b610334565b34801561013e57600080fd5b5061011161014d366004610423565b60026020526000908152604090205481565b34801561016b57600080fd5b50610174610380565b6040516100f2919061050e565b336001600160a01b037f000000000000000000000000000000000000000000000000000000000000000016146101ee5760405162461bcd60e51b815260206004820152600d60248201526c2737ba103a34329027bbb732b960991b60448201526064015b60405180910390fd5b60007f00000000000000000000000000000000000000000000000000000000000000006001600160a01b03164760405160006040518083038185875af1925050503d806000811461025b576040519150601f19603f3d011682016040523d82523d6000602084013e610260565b606091505b50509050806102a85760405162461bcd60e51b81526020600482015260146024820152732330b4b632b2103a379039b2b7321022ba3432b960611b60448201526064016101e5565b50565b600034116102fb5760405162461bcd60e51b815260206004820152601b60248201527f4d7573742073656e6420657468657220746f207472616e73666572000000000060448201526064016101e5565b6040516001600160a01b038216903480156108fc02916000818181858888f19350505050158015610330573d6000803e3d6000fd5b5050565b600061034082826105e5565b50600180600082825461035391906106a5565b90915550503360009081526002602052604081208054600192906103789084906106a5565b909155505050565b6000805461038d9061055c565b80601f01602080910402602001604051908101604052809291908181526020018280546103b99061055c565b80156104065780601f106103db57610100808354040283529160200191610406565b820191906000526020600020905b8154815290600101906020018083116103e957829003601f168201915b505050505081565b6001600160a01b03811681146102a857600080fd5b60006020828403121561043557600080fd5b81356104408161040e565b9392505050565b634e487b7160e01b600052604160045260246000fd5b60006020828403121561046f57600080fd5b813567ffffffffffffffff8082111561048757600080fd5b818401915084601f83011261049b57600080fd5b8135818111156104ad576104ad610447565b604051601f8201601f19908116603f011681019083821181831017156104d5576104d5610447565b816040528281528760208487010111156104ee57600080fd5b826020860160208301376000928101602001929092525095945050505050565b600060208083528351808285015260005b8181101561053b5785810183015185820160400152820161051f565b506000604082860101526040601f19601f8301168501019250505092915050565b600181811c9082168061057057607f821691505b60208210810361059057634e487b7160e01b600052602260045260246000fd5b50919050565b601f8211156105e057600081815260208120601f850160051c810160208610156105bd5750805b601f850160051c820191505b818110156105dc578281556001016105c9565b5050505b505050565b815167ffffffffffffffff8111156105ff576105ff610447565b6106138161060d845461055c565b84610596565b602080601f83116001811461064857600084156106305750858301515b600019600386901b1c1916600185901b1785556105dc565b600085815260208120601f198616915b8281101561067757888601518255948401946001909101908401610658565b50858210156106955787850151600019600388901b60f8161c191681555b5050505050600190811b01905550565b808201808211156106c657634e487b7160e01b600052601160045260246000fd5b9291505056fea264697066735822122046a7f20c543382a27ca9f74e4d1d7275389bd474888d9c3e80f7515e0fe95ee664736f6c634300081100334275696c64696e6720556e73746f707061626c652041707073206f6e20436f6e666c75782121",
  "devdoc": {
    "kind": "dev",
    "methods": {},
    "version": 1
  },
  "userdoc": {
    "kind": "user",
    "methods": {},
    "version": 1
  },
  "storageLayout": {
    "storage": [
      {
        "astId": 6,
        "contract": "contracts/YourContract.sol:YourContract",
        "label": "greeting",
        "offset": 0,
        "slot": "0",
        "type": "t_string_storage"
      },
      {
        "astId": 9,
        "contract": "contracts/YourContract.sol:YourContract",
        "label": "totalCounter",
        "offset": 0,
        "slot": "1",
        "type": "t_uint256"
      },
      {
        "astId": 13,
        "contract": "contracts/YourContract.sol:YourContract",
        "label": "userGreetingCounter",
        "offset": 0,
        "slot": "2",
        "type": "t_mapping(t_address,t_uint256)"
      }
    ],
    "types": {
      "t_address": {
        "encoding": "inplace",
        "label": "address",
        "numberOfBytes": "20"
      },
      "t_mapping(t_address,t_uint256)": {
        "encoding": "mapping",
        "key": "t_address",
        "label": "mapping(address => uint256)",
        "numberOfBytes": "32",
        "value": "t_uint256"
      },
      "t_string_storage": {
        "encoding": "bytes",
        "label": "string",
        "numberOfBytes": "32"
      },
      "t_uint256": {
        "encoding": "inplace",
        "label": "uint256",
        "numberOfBytes": "32"
      }
    }
  }
}